{
  "contractName": "Election",
  "abi": [
    {
      "inputs": [],
      "payable": false,
      "stateMutability": "nonpayable",
      "type": "constructor"
    },
    {
      "anonymous": false,
      "inputs": [
        {
          "indexed": true,
          "internalType": "uint256",
          "name": "_candidateId",
          "type": "uint256"
        }
      ],
      "name": "votedEvent",
      "type": "event"
    },
    {
      "constant": true,
      "inputs": [],
      "name": "candidate",
      "outputs": [
        {
          "internalType": "string",
          "name": "",
          "type": "string"
        }
      ],
      "payable": false,
      "stateMutability": "view",
      "type": "function"
    },
    {
      "constant": true,
      "inputs": [],
      "name": "candidateCount",
      "outputs": [
        {
          "internalType": "uint256",
          "name": "",
          "type": "uint256"
        }
      ],
      "payable": false,
      "stateMutability": "view",
      "type": "function"
    },
    {
      "constant": true,
      "inputs": [
        {
          "internalType": "uint256",
          "name": "",
          "type": "uint256"
        }
      ],
      "name": "candidates",
      "outputs": [
        {
          "internalType": "uint256",
          "name": "id",
          "type": "uint256"
        },
        {
          "internalType": "string",
          "name": "cname",
          "type": "string"
        },
        {
          "internalType": "uint256",
          "name": "cvotes",
          "type": "uint256"
        }
      ],
      "payable": false,
      "stateMutability": "view",
      "type": "function"
    },
    {
      "constant": true,
      "inputs": [
        {
          "internalType": "address",
          "name": "",
          "type": "address"
        }
      ],
      "name": "voters",
      "outputs": [
        {
          "internalType": "bool",
          "name": "",
          "type": "bool"
        }
      ],
      "payable": false,
      "stateMutability": "view",
      "type": "function"
    },
    {
      "constant": false,
      "inputs": [
        {
          "internalType": "uint256",
          "name": "cid",
          "type": "uint256"
        }
      ],
      "name": "voteCandidate",
      "outputs": [],
      "payable": false,
      "stateMutability": "nonpayable",
      "type": "function"
    }
  ],
  "bytecode": "0x608060405234801561001057600080fd5b506100556040518060400160405280600d81526020017f4d61726979612054686f6d6173000000000000000000000000000000000000008152506100e260201b60201c565b6100996040518060400160405280601281526020017f41697368776172796120532050726162687500000000000000000000000000008152506100e260201b60201c565b6100dd6040518060400160405280600b81526020017f52697368696b65736820520000000000000000000000000000000000000000008152506100e260201b60201c565b610203565b60036000815480929190600101919050555060405180606001604052806003548152602001828152602001600081525060016000600354815260200190815260200160002060008201518160000155602082015181600101908051906020019061014d92919061015e565b506040820151816002015590505050565b828054600181600116156101000203166002900490600052602060002090601f016020900481019282601f1061019f57805160ff19168380011785556101cd565b828001600101855582156101cd579182015b828111156101cc5782518255916020019190600101906101b1565b5b5090506101da91906101de565b5090565b61020091905b808211156101fc5760008160009055506001016101e4565b5090565b90565b610517806102126000396000f3fe608060405234801561001057600080fd5b50600436106100575760003560e01c80633477ee2e1461005c5780636c8381f8146101115780638c08a4dc14610194578063a3ec138d146101c2578063a9a981a31461021e575b600080fd5b6100886004803603602081101561007257600080fd5b810190808035906020019092919050505061023c565b6040518084815260200180602001838152602001828103825284818151815260200191508051906020019080838360005b838110156100d45780820151818401526020810190506100b9565b50505050905090810190601f1680156101015780820380516001836020036101000a031916815260200191505b5094505050505060405180910390f35b6101196102fe565b6040518080602001828103825283818151815260200191508051906020019080838360005b8381101561015957808201518184015260208101905061013e565b50505050905090810190601f1680156101865780820380516001836020036101000a031916815260200191505b509250505060405180910390f35b6101c0600480360360208110156101aa57600080fd5b810190808035906020019092919050505061039c565b005b610204600480360360208110156101d857600080fd5b81019080803573ffffffffffffffffffffffffffffffffffffffff1690602001909291905050506104bc565b604051808215151515815260200191505060405180910390f35b6102266104dc565b6040518082815260200191505060405180910390f35b6001602052806000526040600020600091509050806000015490806001018054600181600116156101000203166002900480601f0160208091040260200160405190810160405280929190818152602001828054600181600116156101000203166002900480156102ee5780601f106102c3576101008083540402835291602001916102ee565b820191906000526020600020905b8154815290600101906020018083116102d157829003601f168201915b5050505050908060020154905083565b60008054600181600116156101000203166002900480601f0160208091040260200160405190810160405280929190818152602001828054600181600116156101000203166002900480156103945780601f1061036957610100808354040283529160200191610394565b820191906000526020600020905b81548152906001019060200180831161037757829003601f168201915b505050505081565b600260003373ffffffffffffffffffffffffffffffffffffffff1673ffffffffffffffffffffffffffffffffffffffff16815260200190815260200160002060009054906101000a900460ff16156103f357600080fd5b60008111801561040557506003548111155b61040e57600080fd5b6001600260003373ffffffffffffffffffffffffffffffffffffffff1673ffffffffffffffffffffffffffffffffffffffff16815260200190815260200160002060006101000a81548160ff0219169083151502179055506001600082815260200190815260200160002060020160008154809291906001019190505550807ffff3c900d938d21d0990d786e819f29b8d05c1ef587b462b939609625b684b1660405160405180910390a250565b60026020528060005260406000206000915054906101000a900460ff1681565b6003548156fea265627a7a72315820083ed5c68b435295f7c969bc9e3e03997f8eadef7fee995571bd0fc495efae3964736f6c63430005100032",
  "source": "//SPDX-License-Identifier:UNLICENSED\r\n\r\npragma solidity 0.5.16;\r\n\r\ncontract Election {\r\n    //State variable\r\n    string public candidate;\r\n\r\n    //Constructor\r\n    constructor() public {\r\n        addCandidate(\"Mariya Thomas\");\r\n        addCandidate(\"Aishwarya S Prabhu\");\r\n        addCandidate(\"Rishikesh R\");\r\n    }\r\n\r\n    //Model a candidate\r\n    struct Candidate {\r\n        uint256 id;\r\n        string cname;\r\n        uint256 cvotes;\r\n    }\r\n\r\n    //Store candidates in candidates state variable\r\n    mapping(uint256 => Candidate) public candidates;\r\n    //Store accounts that have already voted\r\n    mapping(address => bool) public voters;\r\n\r\n    //Store candidate counts as state variable\r\n    uint256 public candidateCount;\r\n\r\n    //Adding candidates\r\n    function addCandidate(string memory _name) private {\r\n        candidateCount++;\r\n        candidates[candidateCount] = Candidate(candidateCount, _name, 0);\r\n    }\r\n\r\n    //vote function\r\n    function voteCandidate(uint256 cid) public {\r\n        //Checking necessary conditions\r\n        require(!voters[msg.sender]);\r\n        require(cid > 0 && cid <= candidateCount);\r\n\r\n        //record voter\r\n        voters[msg.sender] = true;\r\n\r\n        //increment candidate vote\r\n        candidates[cid].cvotes++;\r\n\r\n        //trigger event\r\n        emit votedEvent(cid);\r\n    }\r\n\r\n    //Watching events. an event is triggered every time a vote is cast\r\n    event votedEvent(uint256 indexed _candidateId);\r\n}\r\n",
  "sourcePath": "D:\\election\\contracts\\Election.sol",
  "compiler": {
    "name": "solc",
    "version": "0.5.16+commit.9c3226ce.Emscripten.clang"
  },
  "schemaVersion": "3.4.11",
  "updatedAt": "2023-02-05T13:21:56.164Z",
  "networkType": "ethereum",
  "devdoc": {
    "methods": {}
  },
  "userdoc": {
    "methods": {}
  }
}